:020000040800F2
:1000000080190020A1010008AD340008C9320008A1
:10001000A9340008D10700082B4B0008000000009D
:10002000000000000000000000000000473F000842
:10003000150800080000000029350008493F0008A5
:10004000BB010008BB010008BB010008BB010008A0
:10005000BB010008BB010008BB010008BB01000890
:10006000BB010008BB010008BB010008BB01000880
:10007000BB010008BB010008BB010008BB01000870
:10008000D5070008BB010008BB010008BB01000840
:10009000BB010008BB010008BB010008BB01000850
:1000A000BB010008BB010008BB010008BB01000840
:1000B000BB010008BB010008BB010008BB01000830
:1000C000BB010008BB010008BB010008BB01000820
:1000D000BB010008BB010008BB010008BB01000810
:1000E000BB010008BB010008BB010008BB01000800
:1000F000BB010008BB010008BB010008BB010008F0
:10010000BB010008BB010008BB010008BB010008DF
:10011000BB010008BB010008BB010008BB010008CF
:10012000BB010008BB010008BB010008BB010008BF
:10013000BB010008BB010008BB010008BB010008AF
:10014000BB010008BB010008BB010008BB0100089F
:10015000BB010008BB010008BB010008BB0100088F
:10016000BB010008BB010008BB010008BB0100087F
:10017000BB010008BB0100080000000000000000F7
:10018000BB010008BB010008DFF810D000F0C0F987
:100190000048004765510008AFF300808019002037
:1001A0000648804706480047FEE7FEE7FEE7FEE711
:1001B000FEE7FEE7FEE7FEE7FEE7FEE7E53F0008B5
:1001C000890100082DE9F05F0546002092469B4614
:1001D00088460646814640241BE02846414647465D
:1001E000224600F027F953465A46C01A914110D3CF
:1001F00011461846224600F00EF92D1A67EB010849
:100200004F4622460120002100F005F917EB0009B6
:100210004E41201EA4F10104DFDC484631462A4647
:10022000434600F000B830BCBDE8C09FD2B201E048
:1002300000F8012B491EFBD270470022F6E710B5EB
:1002400013460A4604461946FFF7F0FF204610BD44
:1002500030B505462A460B4612F8010B13F8014B40
:1002600008B1A042F8D01CB1002802D06D1CF1E703
:10027000284630BD10B5044604E00B7800F8013B79
:1002800003B1491C521EF8D2204610BD421C10F882
:10029000011B0029FBD1801A7047000070B50F4D7B
:1002A00000B92868002412E00A4602E09E4203D00A
:1002B000521C1378002BF9D1DAB2224305D02BB1AE
:1002C00024B1002100F8011B04E00446401C06781C
:1002D000002EE9D12860204670BD0000F400002007
:1002E0002DE9FE4F81EA030404F0004421F00041AF
:1002F00000944FF0000B23F0004350EA01045ED05D
:1003000052EA03045BD0C3F30A54C1F30A552C44E8
:10031000A4F2F3340194A0FB0254C1F3130141F49D
:100320008011C3F3130343F4801301FB024400FB69
:10033000034E840A970A44EA815447EA8357A4FB90
:10034000076802958D0A05FB07854FEA932C04FB8D
:100350000C542705029D4FEA065847EA1637B5EBBD
:1003600008056EEB070C870E920E47EA811742EAEA
:100370008312A7FB0201B6EB0B0164EB00042B0D0B
:1003800043EA0C335E1844EB1C50DA465146E7FB57
:100390000201C5F313044FEA0B3343EA14534FEA47
:1003A0000432019C43EA0603A4F10C040294009C6D
:1003B000CDE900B400F05DF803B000F003B8002010
:1003C0000146F9E730BCBDE8C08F0EB540F23341BD
:1003D00002910021CDE900110A460B4600F049F8D0
:1003E00003B000BDC1F30A5210B5C1F3130140F2CE
:1003F000FF3341F480119A4201DA002010BD40F22F
:1004000033439A42A2F2334203DC524200F012F824
:1004100010BD904010BD202A04DB203A00FA02F102
:10042000002070479140C2F1200320FA03F31943E2
:1004300090407047202A04DB203A21FA02F0002184
:10044000704721FA02F3D040C2F1200291400843E4
:100450001946704710B5141E73F1000408DA401CE9
:1004600041F1000192185B411A4301D120F00100D3
:1004700010BD2DE9F04D92469B4611B1B1FA81F2C3
:1004800002E0B0FA80F220329046FFF7C4FF044643
:100490000F4640EA0A0041EA0B0153465A46084318
:1004A00013D0114653EA010019D0C8F1400250465A
:1004B000FFF7C0FF05460E46504659464246FFF735
:1004C000AAFF084305D0012004E020463946BDE8D4
:1004D000F08D0020054346EAE0762C4337430A9826
:1004E0006305E40AA0EB08000022FD0A44EA475431
:1004F0000A3002D500200146E9E7010510196941DB
:10050000DDE9084500196941BDE8F04DA2E70000AA
:10051000064C074D06E0E06840F0010394E8070050
:1005200098471034AC42F6D3FFF732FE345500083A
:10053000545500082DE9F04104460E461546304654
:10054000FFF7A4FE87B24FF4907003593946304646
:10055000D4F8A026984700281CDD4FF49270035968
:1005600000212846D4F8A02698470746002F10DD22
:100570000020E85508A12846FFF76AFE10B10020C8
:10058000BDE8F08107A12846FFF762FE08B102200E
:10059000F6E700BF0420F3E70D0A4F4B0D0A3E209B
:1005A000000000000D0A4552524F52002DE9F04163
:1005B00006460C46002736A1B01CFFF76FFE054625
:1005C00061E03846791CCFB20C2855D2DFE800F044
:1005D000060C131A21282E343A40464D2122294672
:1005E0002046FFF747FE48E02122294604F121007A
:1005F000FFF740FE41E00021284602F073FF84F837
:1006000042003AE00021284602F06CFF84F84300E3
:1006100033E00021284602F065FF84F847002CE013
:1006200004F14801284602F043FF26E004F14C01A2
:10063000284602F03DFF20E004F15001284602F078
:1006400037FF1AE004F15401284602F031FF14E0AC
:1006500004F15801284602F02BFF0EE00021284645
:1006600002F040FF84F8440007E00021284602F031
:1006700039FF84F8460000E000BF00BF04A100205D
:10068000FFF70CFE0546002D9BD1BDE8F081000070
:100690002C0000002DE9F04104460E46002728A159
:1006A000B01CFFF7FBFD054646E03846791CCFB28B
:1006B00007283AD2DFE800F0040A11181F262D009F
:1006C000202229462046FFF7D5FD2FE01822294693
:1006D00004F12000FFF7CEFD28E01022294604F1A6
:1006E0003800FFF7C7FD21E01022294604F1480039
:1006F000FFF7C0FD1AE01022294604F15800FFF769
:10070000B9FD13E00021284602F0ECFEC4F8880091
:100710000CE00CA12846FFF7C1FD05462022294622
:1007200004F16800FFF7A6FD00E000BF00BF04A1D0
:100730000020FFF7B3FD0546002DB6D1BDE8F081DE
:100740002C0000000D0000002DE9F04704460F4684
:1007500015469846DDF820903846FFF797FD1FFABA
:1007600080FA4FF49070035951463846D4F8A026C9
:100770009847002824DD4FF492700359022128463F
:10078000D4F8A0269847022818D108F1080081B2B1
:100790004FF4927003592846D4F8A026984786B2A1
:1007A000A919A1F1080007A1FFF752FD40B1A6F178
:1007B0000800A9F800000020BDE8F0870420FBE74E
:1007C0000420F9E70D0A4F4B0D0A3E2000000000FF
:1007D00000BFFEE710B5024800F0A7F910BD000009
:1007E000B408002030B590F8444004F01C05012402
:1007F000AC40056C6C60046863608468102C04D1A4
:100800000468A2600468E16003E00468A160046811
:10081000E26030BD704700002DE9F04104460F460C
:1008200090461E463A461FA104F5947004F012FA51
:1008300004F5947211462046FFF77CFE0546002D14
:100840002DD1424619A104F5947004F003FA04F581
:10085000947211462046FFF76DFE0546FDB984F8F7
:100860008C60324613A104F5947004F0F3F904F59A
:10087000947211462046FFF75DFE05467DB90FA133
:1008800004F5947004F0E6F904F5947211462046DC
:10089000FFF750FE054615B9012184F8D21028460D
:1008A000BDE8F08143313D25730D000043323D2505
:1008B000730D000043333D25640D000043300D00EF
:1008C00070B504460AA104F5947004F0C3F904F568
:1008D000947211462046FFF72DFE05462DB904F10E
:1008E0008D0104F59470FFF761FE284670BD00008D
:1008F000433F0D0070B50446022547F23050C4F85E
:10090000A006D4F81401804760B904F5947206A1DA
:100910002046FFF70FFE054625B904F594712046E1
:10092000FFF7B8FE284670BD493F0D0A00000000E1
:100930002DE9F84F04460F4691461E46DDE90A8A26
:100940000225B6F5966F3DDC3A4620A104F5947079
:1009500004F080F904F5947211462046FFF7EAFD91
:100960000546002D2ED132461AA104F5947004F0EC
:1009700071F904F5947211462046FFF7DBFD054638
:10098000EDB9524615A104F5947004F063F904F52D
:10099000947211462046FFF7CDFD054695B911A189
:1009A00004F5947004F056F933464A4604F5947100
:1009B0002046CDF80080FFF7C7FE054602E0002084
:1009C000A8F80000284600F011B8000050303D257E
:1009D000640D000052313D25640D000052323D256A
:1009E0006C750D0052303D0D0000000018BCBDE8D4
:1009F000E08F70B50446DDE904561CB111B10AB1AF
:100A000005B10EB9022070BDC4F814114FF49070F6
:100A10000551001D06514FF48E7003510020F2E77E
:100A20007CB504460D466A7830A104F5947004F054
:100A300011F904F5947211462046FFF77BFD064636
:100A4000002E50D12A782BA104F5947004F002F9FD
:100A500004F5947211462046FFF76CFD0646002E01
:100A600041D12878012811D1A88800280EDD6A8894
:100A700022A104F5947004F0EDF804F59472114687
:100A80002046FFF757FD022800D17CBD6A881DA1D2
:100A900004F5947004F0DEF804F5947211462046D3
:100AA000FFF748FD0646F6B9687A297ACDE90010C5
:100AB000EB79AA7915A104F5947004F0CBF804F54C
:100AC000947211462046FFF735FD06465EB913A124
:100AD00004F5947004F0BEF804F5947211462046B3
:100AE000FFF728FD06463046CFE7000050303D2591
:100AF000640D000050313D25640D000050323D254D
:100B0000640D000050343D25640D000050333D2538
:100B1000642E25642E25642E25640D0050363D314B
:100B20000D00000072B600BFFEE770B50446206CF1
:100B300005682068066894F8440000F01C01042051
:100B400088402840E0B106F00400C8B12068006881
:100B500000F0200028B92068006820F00400216817
:100B6000086094F8440000F01C0104208840216CC7
:100B70004860206B002856D02046216B884752E001
:100B800094F8440000F01C0102208840284018B36B
:100B900006F0020000B32068006800F0200040B9B1
:100BA0002068006820F00A0021680860012084F8AD
:100BB000250094F8440000F01C0102208840216CBC
:100BC000486000BF002084F8240000BFE06A50B3F2
:100BD0002046E16A884726E094F8440000F01C01B2
:100BE000082088402840F0B106F00800D8B12068FD
:100BF000006820F00E002168086094F8440000F0BE
:100C00001C0101208840216C48600120E06384F8C9
:100C1000250000BF002084F8240000BF606B10B1E5
:100C20002046616B884770BD10B5014609B90120A7
:100C300010BD3E4B086898420BD23D4B0868C01A65
:100C40001423B0FBF3F08000486439480838086486
:100C50000AE0364B0868C01A1423B0FBF3F080009A
:100C60004864324808380864022081F82500086882
:100C7000026847F6F0708243D1E9020318430B691A
:100C800018434B6918438B691843CB6918430B6AA7
:100C900018430243086802608868B0F5804F3AD074
:100CA000234B083B086C98421BD1D0F8A80091F860
:100CB000443003F01C040F23A34098431C4BA03383
:100CC000186091F8443003F01C0348689840184BB2
:100CD000083BD3F8A8301843154B083BC3F8A800CD
:100CE00019E01248A030006891F8443003F01C0469
:100CF0000F23A34098430D4BA033186091F8443064
:100D000003F01C0348689840084BA0331B68184345
:100D1000064BA03318600020C863012081F825002D
:100D2000002081F8240000BF82E700000804024090
:100D3000080002402DE9F04104460D4616461F46C4
:100D40004FF0000800BF94F82400012802D10220CF
:100D5000BDE8F081012084F8240000BF94F825004C
:100D600001282CD1022084F825000020E0632068AF
:100D7000006820F00100216808603B4632462946A1
:100D80002046FFF72FFD206B30B12068006840F04F
:100D90000E00216808600BE02068006820F0040065
:100DA000216808602068006840F00A002168086037
:100DB0002068006840F001002168086006E000BF7C
:100DC000002084F8240000BF4FF002084046BFE72F
:100DD00070B5044600F0CCF906462546681C10B1F3
:100DE00004480078054400BF00F0C2F9801BA84207
:100DF000FAD370BDEC000020F0B50B46002187E06F
:100E000001258D4005EA0302002A7DD0434D8E085E
:100E100055F826408D072E0F0F25B5402C40B0F118
:100E2000904F01D100251EE03D4DA84201D1012582
:100E300019E03C4DA84201D1022514E03A4DA842E8
:100E400001D103250FE0394DA84201D104250AE064
:100E5000374DA84201D1052505E0364DA84201D104
:100E6000062500E007258E07360FB540A54221D1A3
:100E7000314D2D689543304E3560351D2D689543B5
:100E8000361D3560351D2D689543361D3560351D81
:100E90002D689543361D35608D072E0F0F2505FAF9
:100EA00006F41E4D8E0855F82650A5431B4E8F089C
:100EB00046F8275005684F000326BE4035430560BD
:100EC000CE0800F1200555F826504E07F70E0F26E4
:100ED000BE40B543CF0800F1200646F8275085688C
:100EE0004F000326BE40B5438560466801258D400E
:100EF000AE434660C5684F000326BE40B543C5609B
:100F0000C56A01268E4000E001E0B543C562491C78
:100F100023FA01F5002D7FF473AFF0BD0800014006
:100F20000004004800080048000C00480010004879
:100F300000140048001800480004014078B503463A
:100F40000022E5E0012696400D6805EA0604002C23
:100F50007DD04D68012D08D04D68022D05D04D681B
:100F6000112D02D04D68122D13D19868560003251B
:100F7000B540A8435600CD68B540284398605868EE
:100F800001259540A8430D79C5F3001595402843E8
:100F900058600D7905F00305032D09D1D86A0125A4
:100FA0009540A8430D79C5F3C00595402843D86204
:100FB000D86856000325B540A84356008D68B54053
:100FC0002843D8604D68022D02D04D68122D13D1F0
:100FD000D60803F1200555F826005507EE0E0F251B
:100FE000B540A8435607F60E0D69B5402843D6080C
:100FF00003F1200545F82600186856000325B54082
:10100000A8430D7905F003055600B5402843186044
:101010004D6805F08055B5F1805F78D100BF3F4D38
:101020002D6E45F001053D4E356635462D6E05F0B9
:101030000105009500BF00BF4FEAB635960855F888
:10104000260095072E0F0F25B540A84300E05EE06F
:10105000B3F1904F01D100251EE0314DAB4201D1DB
:10106000012519E02F4DAB4201D1022514E02E4D90
:10107000AB4201D103250FE02C4DAB4201D1042539
:101080000AE02B4DAB4201D1052505E0294DAB42CD
:1010900001D1062500E007259607360FB540284305
:1010A000254D960845F82600244D2868A0434D6834
:1010B00005F48035B5F5803F00D120431F4D2860F1
:1010C0002D1D2868A0434D6805F40035B5F5003F97
:1010D00000D12043194D2D1D28602D1D2868A043E7
:1010E0004D6805F48015B5F5801F00D12043134DE0
:1010F000083528602D1D2868A0434D6805F40015AB
:10110000B5F5001F00D120430C4D0C352860521C52
:101110000D68D540002D7FF415AF78BD001002405A
:101120000004004800080048000C00480010004877
:101130000014004800180048080001400004014065
:10114000024613690B400BB1012000E000207047FC
:1011500010B5426921EA020302EA010443EA0443AA
:10116000836110BD0AB1816100E0816270470000B7
:101170000148006870470000E40000200348006850
:10118000034909780844014908607047E4000020D9
:10119000EC00002010B50024032000F0ADF8002082
:1011A00000F008F808B1012401E000F02FF8204613
:1011B00010BD000070B50446002511480078D8B174
:1011C0000F4800784FF47A71B1FBF0F00D490968CF
:1011D000B1FBF0F6304601F06FFC58B9102C07D285
:1011E00000222146501E00F045F80748046004E044
:1011F000012502E0012500E00125284670BD000020
:10120000EC000020F0000020E800002008B500BF3E
:101210000D48006E40F001000B4908660846006E5C
:1012200000F00100009000BF00BF00BF0846806DC5
:1012300040F0805088650846806D00F08050009036
:1012400000BF00BF08BD0000001002400146084674
:1012500000280DDB00BF00BF00F01F0301229A40F1
:1012600043099B0003F1E023C3F8002100BF00BF46
:1012700000BF70472DE9F05F80460D4616460027F7
:1012800003F0FCFC074639462A46334601F00700C6
:10129000C0F1070ABAF1040F02D94FF0040A01E0C5
:1012A000C0F1070AD14600F1040ABAF1070F02D2D1
:1012B0004FF0000A01E0A0F1030AD4464FF0010A02
:1012C0000AFA09FAAAF1010A0AEA020A0AFA0CFA67
:1012D0004FF0010B0BFA0CFBABF1010B0BEA030B0C
:1012E0004AEA0B042146404603F0D0FC00F000B867
:1012F00030BCBDE8C09F000000BF00F00702064BF5
:1013000019684FF6FF031940044B0B4343EA0221CF
:10131000014B196000BF70470CED00E00000FA05BA
:101320000246B2F5007F2AD11D48006800F4C06073
:10133000B0F5007F32D01A48006820F4C06040F455
:101340000070174B18601748006832235843164B3B
:10135000B0FBF3F0411C00E0491E1148406900F465
:101360008060B0F5806F01D10029F5D10C4840694B
:1013700000F48060B0F5806F10D1032070470848FA
:10138000006800F4C060B0F5806F07D004480068C2
:1013900020F4C06040F48060014B18600020EDE74D
:1013A00000700040F000002040420F00024800683A
:1013B00000F4C06070470000007000402DE9F84361
:1013C00004460025A846208800F40060B0F5006FB0
:1013D00030D1606E80B1B0F5800F13D0B0F5000F42
:1013E00003D0B0F5400F15D113E0FB48C06840F4BE
:1013F0008030F949C8600FE00021201D02F096F806
:10140000054609E0002104F1200002F055F90546E7
:1014100002E001E0012500BF00BF55B9EE48883069
:10142000006820F44000616E0843EB49C1F8880071
:1014300000E0A846208800F48050B0F5805F30D1ED
:10144000A06E80B1B0F1807F13D0B0F1007F03D0E7
:10145000B0F1407F15D113E0DF48C06840F4803020
:10146000DD49C8600FE00021201D02F05FF805464D
:1014700009E0002104F1200002F01EF9054602E017
:1014800001E0012500BF00BF55B9D348883000688E
:1014900020F04070A16E0843CF49C1F8880000E0F9
:1014A000A846206800F40030B0F5003F77D14FF037
:1014B0000009C948806D012121EA107078B100BF90
:1014C000C548806D40F08050C34988650846806DEE
:1014D00000F08050009000BF00BF4FF00109BF48EE
:1014E000006840F48070BD490860FFF741FE074680
:1014F00006E0FFF73DFEC01B022801D9032505E0E9
:10150000B648006800F480700028F2D000BF85BBA8
:10151000B1489030006800F44076D6B1D4F8840029
:10152000B04216D0AC489030006820F44076AA480B
:10153000D0F8900040F48030A749C1F890000846E8
:10154000D0F8900020F48030C1F890000846C0F830
:10155000906006F00100A8B1FFF70AFE074609E017
:10156000FFF706FEC01B41F28831884202D90325ED
:1015700007E017E098489030006800F0020000286B
:10158000EED000BF65B994489030006820F44070F8
:10159000D4F8841008439049C1F8900003E00CE0AF
:1015A000A84600E0A846B9F1010F05D18A48806D30
:1015B00020F080508849886500BF207800F0010045
:1015C00048B185488830006820F00300A16B0843CB
:1015D0008149C1F88800207800F00200022809D172
:1015E0007D488830006820F00C00E16B08437A49A0
:1015F000C1F88800207800F00400042809D176485A
:101600008830006820F03000216C08437249C1F82E
:101610008800207800F00800082809D16E4888303A
:10162000006820F0C000616C08436B49C1F8880075
:10163000207800F01000102809D167488830006831
:1016400020F44070A16C08436349C1F888002078F9
:1016500000F02000202809D15F488830006820F47D
:101660004060E16C08435C49C1F88800208800F4C0
:101670000070B0F5007F09D157488830006820F429
:101680004020E16D08435449C1F88800208800F4E7
:101690008060B0F5806F09D14F488830006820F431
:1016A0004010216E08434C49C1F88800207800F0B2
:1016B0004000402809D148488830006820F4405054
:1016C000216D08434449C1F88800207800F080006B
:1016D000802809D140488830006820F44040616D7E
:1016E00008433D49C1F88800208800F48070B0F5B7
:1016F000807F09D138488830006820F44030A16DDF
:1017000008433549C1F88800208800F40050B0F53E
:10171000005F1FD130488830006820F04060E16EE3
:1017200008432D4988310860E06EB0F1006F06D1A2
:101730002948C06840F480102749C8600AE0E06E7C
:10174000B0F1806F06D10121201D01F0EFFE0546AA
:1017500005B1A846206800F40020B0F5002F1FD185
:101760001D488830006820F04060216F08431A4906
:1017700088310860206FB0F1006F06D11648C0684C
:1017800040F480101449C8600AE0206FB0F1806F07
:1017900006D10121201D01F0C9FE054605B1A8466C
:1017A000206800F48020B0F5802F24D10A488830CA
:1017B000006820F04060616F084307498831086085
:1017C000606FB0F1006F0BD10348C06840F4801027
:1017D0000149C8600FE000000010024000700040A6
:1017E000606FB0F1806F06D10121201D01F09EFED7
:1017F000054605B1A846208800F48040B0F5804F2A
:101800001FD12248006820F04050A16F08431F49B3
:101810000860A06FB0F1805F07D10221201D01F0A8
:1018200085FE05466DB1A8460BE0A06FB0F1005FE4
:1018300007D1022104F1200001F03EFF054605B169
:10184000A846208800F40040B0F5004F09D10F48A9
:10185000006820F08040E16F08430C498839C1F8E6
:101860008800206800F48030B0F5803F0AD1074836
:10187000006820F00040D4F88010084303498839FC
:10188000C1F888004046BDE8F88300008810024097
:101890002DE9F04104460D4614B90120BDE8F08160
:1018A0005548006800F00700A8420ED25248006870
:1018B00020F007002843504908600846006800F0FF
:1018C0000700A84201D00120E8E7207800F00100DD
:1018D000002840D06068032806D14848006800F01E
:1018E0000070D8B90120D9E76068022806D14348C2
:1018F000006800F4003088B90120CFE7606830B993
:101900003E48006800F0020040B90120C6E73B48AD
:10191000006800F4806008B90120BFE7374880689C
:1019200020F003006168084334498860FFF720FC19
:10193000064608E0FFF71CFC801B41F28831884214
:1019400001D90320AAE72D48806800F00C006168E7
:10195000B0EB810FEED1207800F00200022807D111
:101960002648806820F0F000A16808432349886079
:101970002148006800F00700A8420ED91E48006800
:1019800020F0070028431C4908600846006800F062
:101990000700A84201D0012080E7207800F0040071
:1019A000042807D11548806820F4E060E168084306
:1019B00012498860207800F00800082808D10F48F4
:1019C000806820F46050216940EAC1000B498860BA
:1019D00000F046F809498968C1F30311084A515CCF
:1019E00001F01F01C8400749086007480068FFF779
:1019F000E1FB0746384651E7002002400010024054
:101A0000EC540008F0000020E800002001480068C5
:101A100070470000F000002000B5FFF7F7FF054910
:101A20008968C1F30221044A515C01F01F01C840DA
:101A300000BD000000100240FC54000800B5FFF794
:101A4000E5FF05498968C1F3C221044A515C01F0F0
:101A50001F01C84000BD000000100240FC540008F7
:101A6000F0B500230020DFF8D4C0DCF808C00CF08B
:101A70000C01DFF8C8C0DCF80CC00CF0030719B18A
:101A80000C291ED1012F1CD1DFF8B0C0DCF800C03A
:101A90000CF0080CBCF1000F06D1DFF8A0C0DCF898
:101AA00094C0CCF3032305E0DFF890C0DCF800C05D
:101AB000CCF30313DFF888C05CF8233041B9184633
:101AC00006E0042901D11F4802E0082900D11E4880
:101AD0000C2932D1DFF864C0DCF80CC00CF0030430
:101AE000012C09D0022C02D0032C04D101E0154AAC
:101AF00004E0154A02E000BF1A4600BF00BFDFF84D
:101B00003CC0DCF80CC0CCF3021C0CF10106DFF881
:101B10002CC0DCF80CC0CCF3062C0CFB02FCBCFB8C
:101B2000F6F2DFF818C0DCF80CC0CCF3416C0CF115
:101B3000010C4FEA4C05B2FBF5F0F0BD001002407D
:101B4000045500080024F40000127A002DE9F8433F
:101B5000044614B90120BDE8F883F948806800F014
:101B60000C06F748C06800F00307207800F010006A
:101B7000102877D11EB10C2E76D1012F74D1F048E8
:101B8000006800F0020018B1A06908B90120E2E77E
:101B9000EB48216A006800F0080020B1E8480068BE
:101BA00000F0F00005E0E6489430006800F4706052
:101BB000000981421FD9206A01F030FE08B10120DE
:101BC000C9E700BFDE48006840F00800DC49086053
:101BD0000846006820F0F000216A0843D8490860F0
:101BE00000BF0846406820F47F40E16940EA0120D8
:101BF000D34948601FE000BFD148006840F00800AA
:101C0000CF4908600846006820F0F000216A0843C8
:101C1000CB49086000BF0846406820F47F40E16976
:101C200040EA0120C64948602EB9206A01F0F6FD5D
:101C300008B101208FE7FFF713FFC1498968C1F39D
:101C40000311C04A515C01F01F01C840BE49086041
:101C5000BE480068FFF7AEFA8046B8F1000F4ED0DC
:101C6000404678E74BE0FFE7A06980B3B4480068DE
:101C700040F00100B2490860FFF77AFA054606E035
:101C8000FFF776FA401B022801D9032063E7AC482E
:101C9000006800F002000028F2D000BFA8480068E9
:101CA00040F00800A64908600846006820F0F000EF
:101CB000216A0843A249086000BF0846406820F432
:101CC0007F40E16940EA01209D49486017E0FFE755
:101CD0009B48006820F0010099490860FFF748FA26
:101CE000054606E0FFF744FA401B022801D903200D
:101CF00031E79348006800F002000028F2D1207814
:101D000000F0010000285CD0082E03D00C2E0AD170
:101D1000032F08D18A48006800F4003088B3606857
:101D200078BB012017E700BF6068B0F5803F06D19F
:101D30008348006840F48030814908601AE0606898
:101D4000B0F5A02F0BD17E48006840F480207C497C
:101D500008600846006840F4803008600AE078486F
:101D6000006820F48030764908600846006820F456
:101D70008020086000BF606890B1FFF7F9F9054660
:101D800007E01EE0FFF7F4F9401B642801D90320A7
:101D9000E1E66B48006800F400300028F2D010E063
:101DA000FFF7E6F9054606E0FFF7E2F9401B642875
:101DB00001D90320CFE66248006800F40030002813
:101DC000F2D1207800F00200022852D1042E03D074
:101DD0000C2E14D1022F12D15948006800F48060F3
:101DE00018B1E06808B90120B5E65548406820F010
:101DF000F850217C40EA01605149486039E0E068D0
:101E000000B34F48006840F480704D490860FFF708
:101E1000AFF9054606E0FFF7ABF9401B022801D9F0
:101E2000032098E64648006800F480600028F2D05D
:101E30004348406820F0F850217C40EA0160404966
:101E4000486016E03E48006820F480703C49086015
:101E5000FFF78EF9054606E0FFF78AF9401B0228D6
:101E600001D9032077E63648006800F48060002836
:101E7000F2D1207800F00800082836D16069D0B18E
:101E80002F489430006840F001002D49C1F89400BB
:101E9000FFF76EF9054606E0FFF76AF9401B0228D6
:101EA00001D9032057E626489430006800F002006C
:101EB0000028F1D019E022489430006820F0010099
:101EC0001F49C1F89400FFF753F9054606E0FFF7F4
:101ED0004FF9401B022801D903203CE618489430F2
:101EE000006800F002000028F1D1207800F0040022
:101EF000042872D14FF000091148806D00F0805025
:101F000078B900BF0E48806D40F080500C4988655C
:101F10000846806D00F08050009000BF00BF4FF079
:101F200001090B48006800F4807000BB0848006895
:101F300040F4807006490860FFF71AF9054610E082
:101F400000100240EC540008F0000020E8000020DF
:101F500000700040FFF70CF9401B022801D9032054
:101F6000F9E5B548006800F480700028F2D000BFA1
:101F7000A068012808D1B148006840F00100AF49CD
:101F80009039C1F8900021E0A06805280FD1AB4836
:101F9000006840F00400A9499039C1F89000084653
:101FA000D0F8900040F00100C1F890000EE0A34886
:101FB000006820F00100A1499039C1F8900008465E
:101FC000D0F8900020F00400C1F8900000BFA06895
:101FD000A0B1FFF7CDF8054609E02EE0FFF7C8F8FD
:101FE000401B41F28831884201D90320B3E5934870
:101FF000006800F002000028F0D012E0FFF7B8F807
:10200000054608E0FFF7B4F8401B41F288318842EA
:1020100001D903209FE58948006800F002000028EC
:10202000F0D1B9F1010F07D184489038806D20F0CC
:10203000805082499039886500BFA06A00287DD011
:10204000A06A02287BD17D489038C76807F0030159
:10205000E06A814228D107F07001206B401EB1EB8D
:10206000001F21D107F4FE41606BB1EB002F1BD1A3
:1020700007F40031A06B072801D0012000E0002008
:10208000814211D107F4C001A08F0122C2EB5000A0
:10209000B1EB405F08D107F0C0614020005DC2EBAA
:1020A0005000B1EB406F6CD00C2E68D06348903874
:1020B000006800F0806028B960489038006800F03F
:1020C000805008B1012046E55C489038006820F057
:1020D00080705A4990390860FFF74AF8054606E0D3
:1020E000FFF746F8401B022801D9032033E5534887
:1020F0009038006800F000700028F1D1D4E90B108E
:10210000401E41EA0011606B41EA0021A08F0122CC
:10211000C2EB500041EA40514020005DC2EB50004C
:1021200041EA4061A06B000941EA404043499039CF
:10213000C968434A11400843404901E066E046E06F
:102140009039C8600846006840F080700860084612
:10215000C06840F08070C860FFF70AF8054606E0E6
:10216000FFF706F8401B022801D90320F3E43348A7
:102170009038006800F000700028F1D05AE001208B
:10218000E9E42E489038006800F00070F0BB2B485E
:102190009038006840F080702849903908600846FF
:1021A000C06840F08070C860FEF7E2FF054606E0B8
:1021B000FEF7DEFF401B022801D90320CBE41F48B5
:1021C0009038006800F000700028F1D032E00C2E4A
:1021D0002ED01A489038006820F080701749903946
:1021E00008600846006800F0205020B90846C06822
:1021F00020F00300C86011489038C06811490840B9
:102200000E499039C860FEF7B3FF00E012E00546C2
:1022100006E0FEF7ADFF401B022801D903209AE437
:1022200006489038006800F000700028F1D101E005
:10223000012090E400208EE40070004090100240E5
:102240008C809DF9FFFFEEFE10B504460CB901200D
:1022500010BD022084F85D002068006820F0400076
:1022600021680860204600F083F80020206684F88A
:102270005D0000BF84F85C0000BF00BFE8E770B5F8
:1022800004460CB9012070BD606A38B96068B0F5C9
:10229000827F00D105E00021E16102E0002121619F
:1022A00061610021A16294F85D0028B9002084F8E2
:1022B0005C00204600F07AF8022084F85D00206877
:1022C000006820F0400021680860E068B0F5E06F29
:1022D00001D9002501E04FF48055E068B0F5706F3A
:1022E00005D0E068B0F5E06F01D00021A162A088C0
:1022F00000F48270218901F404410843217C01F03B
:1023000002010843217D01F001010843218B01F402
:1023100000710843217F01F0380108432021095D45
:1023200001F080010843218D01F400510843216828
:1023300008600421A06901EA104094F8241001F01B
:102340001001084394F8341001F008010843A189F2
:1023500001F47061084305F4805108432168486026
:1023600000202066012084F85D0000208BE700003B
:1023700010B504460949206888420ED10848806D8E
:1023800020F480400649886508210648FEF734FDA0
:102390004FF480610448FEF72FFD10BD0038004067
:1023A00000100240000800480004004810B586B044
:1023B0000446142101A8FDF740FF25492068884202
:1023C00044D100BF2348806D40F480402149886596
:1023D0000846806D00F48040009000BF00BF00BF41
:1023E0000846C06C40F00400C8640846C06C00F0A9
:1023F0000400009000BF00BF00BF0846C06C40F062
:102400000200C8640846C06C00F00200009000BFE3
:1024100000BF0820019002200290002003900320BA
:1024200004900520059001A90B48FEF787FD4FF4A5
:10243000806001900220029000200390032004900D
:102440000520059001A90548FEF778FD06B010BDEE
:102450000038004000100240000800480004004816
:102460002DE9F8430446884616461D464FF00009FC
:102470006068B0F5827F0DD1A06858B9042084F857
:102480005D003346424641462046009500F0B3F9D0
:10249000BDE8F88300BF94F85C00012801D1022058
:1024A000F6E7012084F85C0000BFFEF761FE0746F6
:1024B00094F85D00012802D04FF0020999E0B8F1CC
:1024C000000F00D016B94FF0010992E0042084F803
:1024D0005D0000202066C4F84080A4F84460A4F8A1
:1024E0004660A063A087E087E0642065E068B0F5FF
:1024F000E06F06D92068406820F480502168486069
:1025000005E02068406840F4805021684860A06879
:10251000B0F5004F0BD12068006820F04000216822
:1025200008602068006820F4804021680860206806
:10253000006800F04000402805D02068006840F0A6
:10254000400021680860E068B0F5E06F22D81CE028
:102550002068806800F0010060B12068007B216C79
:102560000870206C401C2064B4F84600401EA4F89B
:1025700046000AE0FEF7FCFDC01BA84201D3681C20
:1025800000B915B94FF0030933E0B4F8460000284C
:10259000DED121E01CE02068806800F0010060B11D
:1025A0002068C068216C0880206C801C2064B4F80E
:1025B0004600401EA4F846000AE0FEF7D9FDC01B05
:1025C000A84201D3681C00B915B94FF0030910E007
:1025D000B4F846000028DED13A462946204601F0EC
:1025E0006BF908B120202066206E08B14FF0010978
:1025F00000BF012084F85D0000BF002084F85C006B
:1026000000BF484644E72DE9F84F04468846164681
:102610001D464FF0000A00BF94F85C00012802D16B
:10262000022000F0E5B8012084F85C0000BFFEF74E
:102630009FFD0746B14694F85D00012802D04FF097
:10264000020ACBE0B8F1000F00D016B94FF0010A32
:10265000C4E0032084F85D0000202066C4F83880C0
:10266000A687E6872064A4F84400A4F84600206505
:10267000E064A068B0F5004F0BD12068006820F03E
:102680004000216808602068006840F480402168AC
:1026900008602068006800F04000402805D02068ED
:1026A000006840F0400021680860E068B0F5E06F25
:1026B0002FD9606810B1B9F1010F09D1A06B008862
:1026C0002168C860A06B801CA063E08F401EE0877B
:1026D0001BE02068806800F0020002280AD1A06B8D
:1026E00000882168C860A06B801CA063E08F401E3A
:1026F000E0870AE0FEF73CFDC01BA84201D3681C3E
:1027000000B915B94FF0030A68E0E08F0028E0D166
:102710004AE0606810B1B9F1010F17D1E08F0128CC
:102720000AD9A06B00882168C860A06B801CA063D8
:10273000E08F801EE08709E0A06B007821680873B5
:10274000A06B401CA063E08F401EE08729E020685A
:10275000806800F00200022818D1E08F01280AD911
:10276000A06B00882168C860A06B801CA063E08F0C
:10277000801EE08715E0A06B007821680873A06BCD
:10278000401CA063E08F401EE0870AE0FEF7F0FCEB
:10279000C01BA84201D3681C00B915B94FF0030A49
:1027A0001CE0E08F0028D2D13A462946204601F0AD
:1027B000C4F808B120202066A06850B900BF0020EE
:1027C00000902068C068009020688068009000BF7A
:1027D00000BF206E08B14FF0010A00BF012084F84D
:1027E0005D0000BF002084F85C0000BF504618E781
:1027F00018BCBDE8E08F2DE9FF5F0446894692468C
:102800001D460E9E012001900020009000BF94F80C
:102810005C00012803D1022004B000F04AB9012075
:1028200084F85C0000BFFEF7A3FC074694F85D0047
:10283000029060680390A846AB46029801280BD02E
:102840000398B0F5827F04D1A06810B902980428DB
:1028500002D00220009022E1B9F1000F03D0BAF1BA
:10286000000F00D015B90120009018E194F85D0028
:10287000042802D0052084F85D0000202066C4F8FA
:1028800040A0A4F84650A4F84450C4F83890E58716
:10289000A587E0642065E068B0F5E06F02D8BBF181
:1028A000010F06D92068406820F4805021684860F4
:1028B00005E02068406840F4805021684860206846
:1028C000006800F04000402805D02068006840F013
:1028D000400021680860E068B0F5E06F4ED960689C
:1028E00010B1B8F1010F09D1A06B00882168C86050
:1028F000A06B801CA063E08F401EE08736E020685C
:10290000806800F00200022810D1E08F70B10198B9
:1029100001280BD1A06B00882168C860A06B801CC7
:10292000A063E08F401EE08700200190206880684F
:1029300000F0010080B1B4F8460068B12068C068BA
:10294000216C0880206C801C2064B4F84600401E76
:10295000A4F8460001200190FEF70AFCC01BB0421B
:1029600004D3701C10B10320009098E0E08F002881
:10297000C5D1B4F846000028C1D185E0606810B127
:10298000B8F1010F17D1E08F01280AD9A06B008898
:102990002168C860A06B801CA063E08F801EE08768
:1029A00009E0A06B007821680873A06B401CA0634D
:1029B000E08F401EE08760E02068806800F0020041
:1029C00002281ED1E08FE0B10198012819D1E08FD3
:1029D00001280AD9A06B00882168C860A06B801C00
:1029E000A063E08F801EE08709E0A06B007821687B
:1029F0000873A06B401CA063E08F401EE08700209E
:102A000001902068806800F0010058B3B4F84600D7
:102A100040B3B4F84600012816D92068C068216C7C
:102A20000880206C801C2064B4F84600801EA4F846
:102A30004600B4F84600012812D82068406840F4E7
:102A40008050216848600BE02068007B216C087092
:102A5000206C401C2064B4F84600401EA4F84600D8
:102A600001200190FEF784FBC01BB04201D3701C13
:102A700000B916B90320009011E0E08F00289BD127
:102A8000B4F84600002897D13A463146204600F077
:102A900054FF18B1012000902020206600BF0120C3
:102AA00084F85D0000BF002084F85C0000BF00983F
:102AB000B2E630BCBDE8C09F70B504462546681E2E
:102AC000B0F1807F01D301200FE0681E4FF0E021BC
:102AD00048610F214FF0FF3002F0D8F800204FF08E
:102AE000E021886107200861002070BD30B50246F2
:102AF0000B4600BF92F83C00012801D1022030BDF6
:102B0000012082F83C0000BF022082F83D001068DE
:102B10004168106884681F4D1068A84203D01E4D9C
:102B20001068A84203D121F470015868014321F0D4
:102B300070011868014310684160164D1068A84282
:102B400017D01068B0F1804F13D0144D1068A84210
:102B50000FD0134D1068A8420BD0124D1068A84238
:102B600007D00D4D1068A84203D00F4D1068A84241
:102B700005D124F080049868044310688460012023
:102B800082F83D0000BF002082F83C0000BF00BF7B
:102B9000B5E70000002C0140003401400004004073
:102BA00000080040000C0040004001407047000059
:102BB00010B586B00446142101A8FDF73EFB10496C
:102BC000206888421AD100BF0E48C06C40F0020055
:102BD0000C49C8640846C06C00F00200009000BFB9
:102BE00000BF10200190022002900020039004906A
:102BF0000220059001A90448FEF7A0F906B010BD17
:102C000000040040001002400004004870B5044673
:102C10000D46164600BF94F83C00012801D1022061
:102C200070BD012084F83C0000BF0C2E51D005DCA3
:102C30004EB1042E1ED0082E7AD133E0102E60D073
:102C4000142EF9D175E02946206801F0EDFA2068CC
:102C5000806940F00800216888612068806920F060
:102C60000400216888612068806929690843216817
:102C7000886177E02946206801F02CFB2068806994
:102C800040F40060216888612068806920F48060D9
:102C90002168886120688069296940EA01202168EB
:102CA00088615FE02946206801F06EFB2068C069FA
:102CB00040F008002168C8612068C06920F0040065
:102CC0002168C8612068C069296908432168C86112
:102CD00048E02946206801F0B1FB2068C06940F453
:102CE00000602168C8612068C06920F480602168A4
:102CF000C8612068C069296940EA01202168C8616B
:102D000030E02946206801F0D3FB2068406D40F098
:102D10000800216848652068406D20F004002168A3
:102D200048652068406D296908432168486519E0B5
:102D300017E02946206801F0F3FB2068406D40F45D
:102D40000060216848652068406D20F4806021683B
:102D500048652068406D296940EA0120216848657E
:102D600000E000BF00BF00BF002084F83C0000BFAF
:102D700000BF55E710B504460CB9012010BD94F80A
:102D80003D0028B9002084F83C00204600F02AF8D5
:102D9000022084F83D00211D206801F04BF901203C
:102DA00084F8480000BF84F83E0001213F2001550F
:102DB0004020015541200155422001554320015535
:102DC00000BF00BF012084F8440045200155462083
:102DD00001554720015500BF012084F83D00002027
:102DE000CCE7000038B504461A492068884230D143
:102DF00000BF1948806D40F00200174988650846F9
:102E0000806D00F00200009000BF00BF134814491D
:102E10000860052048601021114881600021C160D0
:102E20008021016189004161002181612021C1610E
:102E300000210162FDF7F8FE08B1FDF773FE00BF47
:102E4000074961620846846200BF00BFA1638462D3
:102E500000BF38BD00040040001002406C0002407A
:102E6000B4080020704770472DE9F04104460D4634
:102E70001646984615B994F83E0015E0042D02D187
:102E80003F20005D10E0082D02D14020005D0BE0E6
:102E90000C2D02D14120005D06E0102D02D1422010
:102EA000005D01E04320005D022801D1BDE8F08112
:102EB00015B994F83E0015E0042D02D13F20005DC5
:102EC00010E0082D02D14020005D0BE00C2D02D156
:102ED0004120005D06E0102D02D14220005D01E09E
:102EE0004320005D012825D11EB9B8F1000F00D0A4
:102EF000DCE71DB9022084F83E001DE0042D03D15B
:102F000002213F20015517E0082D03D10221402066
:102F1000015511E00C2D03D10221412001550BE098
:102F2000102D03D102214220015505E0022143204A
:102F3000015501E00120B9E735B1042D1FD0082D5E
:102F400038D00C2D6CD150E06249606AC162624990
:102F5000606A01636149606A4163216801F134027A
:102F600043463146606AFDF7E5FE08B101209DE762
:102F70002068C06840F400702168C86051E055497D
:102F8000A06AC1625449A06A01635449A06A4163BE
:102F9000216801F1380243463146A06AFDF7CAFEB6
:102FA00008B1012082E72068C06840F48060216891
:102FB000C86036E04749E06AC1624749E06A016398
:102FC0004649E06A4163216801F13C0243463146CB
:102FD000E06AFDF7AFFE08B1012067E72068C0682E
:102FE00040F400602168C8601BE03A49206BC16270
:102FF0003949206B01633949206B4163216801F134
:10300000400243463146206BFDF794FE08B1012093
:103010004CE72068C06840F480502168C86000E038
:1030200000BF00BF01222946206801F069F82C4941
:10303000206888420FD02B49206888420BD02A494B
:103040002068884207D029492068884203D028494F
:103050002068884201D1012000E0002028B12068CA
:10306000406C40F40040216848641D492068884253
:1030700017D02068B0F1804F13D01E4920688842D5
:103080000FD01D49206888420BD01C492068884217
:1030900007D014492068884203D013492068884229
:1030A00010D120688068164900EA0107062F0FD06A
:1030B000B7F5803F0CD02068006840F0010021681F
:1030C000086005E02068006840F0010021680860A1
:1030D0000020EBE6234100088B410008CB410008AB
:1030E000002C0140003401400040014000440140F8
:1030F000004801400004004000080040000C00406F
:103100000700010010B504460CB9012010BDA069EC
:1031100000B100E000BF606F28B9002084F87000A3
:10312000204600F029F8242060672068006820F01D
:10313000010021680860204601F0DEFA012800D174
:10314000E4E7606A10B1204601F022FA2068406886
:1031500020F49040216848602068806820F02A00B0
:10316000216888602068006840F0010021680860DC
:10317000204601F089FAC9E710B586B0044614214B
:1031800001A8FDF75AF817492068884228D100BFE6
:103190001548006E40F48040134908660846006EEA
:1031A00000F48040009000BF00BF00BF0846C06C24
:1031B00040F00200C8640846C06C00F002000090B5
:1031C00000BF00BFC02001900220029000200390A9
:1031D000032004900720059001A90448FDF7AEFEE6
:1031E00006B010BD00380140001002400004004845
:1031F0002DE9F84F04460E4617469946606F202881
:103200005DD106B117B9012000F05BB800BF94F89A
:103210007000012801D10220F6E7012084F8700037
:1032200000BF0020E06721206067FDF7A1FF824614
:10323000A4F85070A4F85270A068B0F5805F04D173
:10324000206910B90025B04602E035464FF000086D
:1032500000BF002084F8700000BF1DE0534600222C
:1032600080212046CDF8009001F005FC08B1032034
:10327000CAE745B9B8F80000C0F30800216808851E
:1032800008F1020803E02878216808856D1CB4F86D
:103290005200401EA4F85200B4F852000028DDD1BC
:1032A0005346002240212046CDF8009001F0E3FB78
:1032B00008B10320A8E7202060670020A4E70220CF
:1032C000A2E718BCBDE8E08F00BFFEE708B500BF6D
:1032D0000A48806C40F00100084988640846806C08
:1032E00000F00100009000BF00BF00221146102036
:1032F000FDF7C0FF1020FDF7A9FF08BD0010024038
:1033000000B587B0142102A8FCF797FF00BF17484B
:10331000C06C40F004001549C8640846C06C00F059
:103320000400019000BF00BF00BF0846C06C40F021
:103330000200C8640846C06C00F00200019000BFA3
:1033400000BF00224FF480410948FDF70BFF4FF406
:10335000804002900120039000200490059002A973
:103360000348FDF7EBFD07B000BD00000010024070
:103370000004004810B51248124908604FF48270EA
:1033800048604FF400410F4881604FF44071C160C4
:103390000021016141614FF4007181610021C1612F
:1033A0000162416281620721C1620021016308213B
:1033B0004163FEF764FF08B1FDF7B4FB10BD0000E8
:1033C000003800400408002000B58BB000200890B1
:1033D00009900A901C2101A8FCF72FFF1D481E49E7
:1033E00008601E4800681E49B0FBF1F0401E1A49F3
:1033F000486040F6EE1118484161002181601321B8
:10340000C160002101618161FFF7B4FC08B1FDF7E3
:1034100089FB002008900A9008A90F48FFF766FB77
:1034200008B1FDF77FFB602001900020039005901C
:10343000002201A90848FFF7E9FB40F6ED13094A0D
:1034400000210548FFF710FD0348FFF7B1FB0BB063
:1034500000BD00000004004068080020F0000020CB
:103460000024F4007C09002010B50D480D490860C7
:103470004FF4E130486000210A488160C160016179
:103480000C21416100218161C16101620020054977
:1034900048620846FFF736FE08B1FDF743FB10BD52
:1034A00000380140FC08002000BFFEE700BFFEE737
:1034B000F8B504460D46002610E001200090207863
:1034C0002E2808D06946204600F00CF8C2B23046DB
:1034D000711CCEB22A549DF80000044420780028C4
:1034E000EBD1F8BD70B5024600250024002310780A
:1034F0002D2803D10125521C601CC4B207E01078AE
:1035000030380A2603FB0603521C601CC4B2107834
:10351000302802DB10783928F1DD01B10C700DB1D3
:10352000584270BD1846FCE7704700002DE9F04195
:1035300004460F4600255C48C06800F0030090B1C7
:103540005948C06800F003002168884209D120680A
:1035500038B15548C068C0F30210401C6168884209
:1035600033D0012531E02068012804D0022809D099
:1035700003281AD10DE04C48006800F0020000B9A1
:10358000012514E04848006800F4806000B9012576
:103590000DE04548006800F4003028B94248006852
:1035A00000F4802000B9012501E0012500BF00BF23
:1035B0005DB9D4E90010401E41EA00103A49C968DB
:1035C00021F0730108433849C860002D68D136489E
:1035D000006820F0806034490860FDF7C9FD0646A8
:1035E00006E0FDF7C5FD801B022801D9032505E093
:1035F0002D48006800F000600028F2D100BFCDBB6C
:103600006FB9A0680002E168090940EA4140264913
:103610000969264A114008432349086120E0012F27
:103620000FD1A0680002218A0122C2EB510140EAB9
:1036300041501D4909691E4A114008431A49086151
:103640000EE0A0680002217D0122C2EB510140EA98
:10365000416015490969174A114008431249086138
:103660001148006840F080600F490860FDF780FD58
:10367000064607E014E0FDF77BFD801B022801D918
:10368000032505E00848006800F000600028F2D03B
:1036900000BF2DB904480069A169084302490861C7
:1036A0002846BDE8F081000000100240FF80FDFFC9
:1036B000FF809FFFFF80FFF92DE9F04104460F4690
:1036C00000255348C06800F0030090B15048C0681E
:1036D00000F003002168884209D1206838B14C48C5
:1036E000C068C0F30210401C6168884233D00125D5
:1036F00031E02068012804D0022809D003281AD11B
:103700000DE04348006800F0020000B9012514E014
:103710003F48006800F4806000B901250DE03C4896
:10372000006800F4003028B93948006800F48020AF
:1037300000B9012501E0012500BF00BF5DB9D4E952
:103740000010401E41EA00103149C96821F07301A0
:1037500008432F49C860002D56D12D48006820F03D
:1037600080502B490860FDF703FD064606E0FDF793
:10377000FFFC801B022801D9032505E024480068CE
:1037800000F000500028F2D100BF75BB6FB9A068EF
:103790000002E168090940EA41401D4949691D4AA2
:1037A000114008431A4948610EE0A0680002217CDC
:1037B0000122C2EB510140EA416015494969164AAC
:1037C00011400843124948611148006840F0805098
:1037D0000F490860FDF7CCFC064607E0FDF7C8FC82
:1037E000801B022802D9032506E00DE00848006886
:1037F00000F000500028F1D000BF2DB90448406906
:1038000061690843024948612846BDE8F08100002B
:1038100000100240FF80FDFFFF80FFF9F8B504466D
:1038200000262348806D00F0805018B1FDF7BEFDE2
:10383000054616E000BF1E48806D40F080501C49D0
:1038400088650846806D00F08050009000BF00BF82
:10385000FDF7ACFD05461648806D20F080501449F8
:103860008865B5F5007F07D1802C10D9A02C01D92F
:1038700002260CE001260AE0802C01D9032606E08E
:10388000802C01D1022602E0702C00D101260948CB
:10389000006820F0070030430649086008460068C9
:1038A00000F00700B04201D00120F8BD0020FCE785
:1038B0000010024000200240F8B504460E461546AE
:1038C0006068B0F5827F0DD1A068B0F5004F03D0DD
:1038D000A068B0F5806F05D12068006820F0400036
:1038E000216808603346002280212046009500F0C0
:1038F000BBFA28B1206E40F0200020660320F8BDFE
:103900006068B0F5827F16D1A068B0F5004F03D093
:10391000A068B0F5806F0ED1334600224FF4C0612D
:103920002046009500F02AFA28B1206E40F02000D1
:1039300020660320E3E70020E1E7F8B504460E46E1
:103940001546334600224FF4C0512046009500F042
:1039500015FA28B1206E40F0200020660320F8BD43
:103960003346002280212046009500F07DFA28B1E0
:10397000206E40F0200020660320F0E7334600224E
:103980004FF4C0612046009500F0F8F928B1206E90
:1039900040F0200020660320E1E70020DFE7000080
:1039A00010B50248FEF750FC002010BDF8000020C2
:1039B00010B504462046FDF70BFA10BD7CB5FDF7A7
:1039C000D7FB06460024444844490860084600F0F6
:1039D00089F84FF482704149486000213F48816076
:1039E0004FF47061C1600021016141614FF40071C9
:1039F00081611021C1610021016241628162C16265
:103A0000FEF73DFC00BF00224FF480713448FDF703
:103A1000A9FB0A20FDF7DCF9012211023048FDF76D
:103A2000A1FB4FF4FA70FDF7D3F900BF00BF0022ED
:103A300001212B48FDF796FB00BF1BE00DEB0401B5
:103A40004FF6FF7301222548FEF70AFD0546A01C2C
:103A5000C4B2FDF78DFB801BB0F5803F00D24DB1A5
:103A600000BF012211461E48FDF77CFB00BF4FF04E
:103A7000FF307CBD02211A48FDF762FB0128DDD032
:103A80009DF80000152813D19DF8010015280FD1CD
:103A90009DF802000D280BD19DF803000A2807D1DC
:103AA0009DF804003E2803D19DF80500202809D088
:103AB00000BF012211460A48FDF754FB00BF4FF03A
:103AC000FF30D6E700BF012211460548FDF74AFB4B
:103AD00000BF0020CDE70000003C0040F8000020BF
:103AE0000010004810B586B0044600BF4D48806DF8
:103AF00040F400404B4988650846806D00F4004062
:103B0000009000BF00BF00BF0846C06C40F002003C
:103B1000C8640846C06C00F00200009000BF00BFFF
:103B200000BF0846C06C40F00400C8640846C06C82
:103B300000F00400009000BF00BF00BF0846C06C4A
:103B400040F01000C8640846C06C00F010000090FF
:103B500000BF00BF00224FF400513348FDF702FBC5
:103B60004FF4005001900120029000200390049037
:103B700001A92D48FDF7E2F9022001902B4802909F
:103B800000200390049001A92948FDF7D7F94FF4CC
:103B90008070019001200290002003900490059015
:103BA00001A92348FDF7CAF9012211462048FDF773
:103BB000D9FA012001900290002003900120049086
:103BC00001A91B48FDF7BAF94FF48060019002206B
:103BD000029000200390012004900620059001A986
:103BE0001448FDF7ABF94FF4805001900220029089
:103BF00000200390012004900620059001A90D48A3
:103C0000FDF79CF94FF40060019002200290012022
:103C1000039004900620059001A90648FDF78EF94F
:103C200006B010BD00100240000400480000111052
:103C300000100048000800482DE9F04104460F46F6
:103C40001546FDF795FA8046002600BF0122114671
:103C50002A48FDF787FA00BF0120FDF7B9F809E00F
:103C6000FDF786FAA0EB0800A84203D94FF0FF3019
:103C7000BDE8F08102212148FDF762FA0128EFD169
:103C8000FDF7A6F800BF002201211C48FDF76AFAE3
:103C900000BF1CE0BE4200DBC7B92B460122214613
:103CA0001748FEF7DDFBB01C06B2A41CFDF760FA56
:103CB000A0EB0800A8420AD900BF012211460F4814
:103CC000FDF750FA00BF4FF0FF30D1E705E00221C9
:103CD0000A48FDF735FA0128DCD000BF601E044613
:103CE0000078152801D1701E06B200BF01221146CE
:103CF0000248FDF737FA00BF3046B9E70010004828
:103D0000F80000202DE9F04105460C461646FDF767
:103D10002FFA074608E0FDF72BFAC01BB04203D983
:103D20004FF0FF30BDE8F08102211248FDF708FA9C
:103D30000128F0D100BF002201210E48FDF712FA40
:103D400000BF04F0010008B10A20285504F1010861
:103D500008EBD870C0F34F02334629460648FEF7F9
:103D600052FC10B14FF0FF30DCE70020285520B2A4
:103D7000D8E7000000100048F80000202DE9F84FB7
:103D800004460D4616469846DDF82890FDF7F0F9F2
:103D9000A0EB0900A8EB0007FDF7EAF982462F48DF
:103DA0000068C0EBC00000EB8000000D784300907D
:103DB0004CE0B5F5C06F02D10EB92068007B08F168
:103DC0000100002842D0FDF7D3F9A0EB0A00B84269
:103DD00000D2A7BB2068406820F0E000216848605E
:103DE0006068B0F5827F0DD1A068B0F5004F03D0B8
:103DF000A068B0F5806F05D12068006820F0400011
:103E000021680860A06AB0F5005F0DD100BF20688E
:103E1000006820F40050216808602068006840F4C1
:103E200000502168086000BF012084F85D0000BFD9
:103E3000002084F85C0000BF032000F011B8FFE709
:103E4000009800B900270098401E00902068806804
:103E50002840B042ADD10020EFE70000F000002084
:103E600018BCBDE8E08F00002DE9F84F04460D4670
:103E700090461E46DDF82890FDF77AF9A0EB090080
:103E8000371AFDF775F982462C480068C0F3CB302D
:103E90007843009045E0701C002842D0FDF768F997
:103EA000A0EB0A00B84200D2A7BB2068406820F00F
:103EB000E000216848606068B0F5827F0DD1A0689D
:103EC000B0F5004F03D0A068B0F5806F05D1206831
:103ED000006820F0400021680860A06AB0F5005F2B
:103EE0000DD100BF2068006820F4005021680860F0
:103EF0002068006840F400502168086000BF01207D
:103F000084F85D0000BF002084F85C0000BF03203F
:103F100000F016B8FFE7009800B900270098401E8F
:103F20000090206880682840A84201D1012000E06C
:103F300000204045AFD10020EAE70000F00000205B
:103F400018BCBDE8E08F704710B5FDF717F910BD3C
:103F500000B5B9B0442128A8FCF76FF9142123A8B3
:103F6000FCF76BF9882101A8FCF767F9102028906D
:103F700001202E9000202F9060203090022032905F
:103F8000012128A8C16201632821416307218163BF
:103F90000221C1630164FDF7D9FD08B1FCF7C2FD40
:103FA0000F20239003202490002025902690279016
:103FB000042123A8FDF76CFC08B1FCF7B3FD012038
:103FC000019000200F9001A8FDF7F8F908B1FCF767
:103FD000A9FD4FF40070FDF7A3F908B1FCF7A2FDAD
:103FE00039B000BD1048006840F470000E49086008
:103FF0000E48006840F001000C490860002088600D
:10400000084600680A490840084908608814C860E2
:104010000846006820F48020086000208861C803FA
:10402000014980390860704788ED00E000100240C7
:10403000FFFFF6EA10B50268294B98420ED0B0F1A6
:10404000804F0BD0274B984208D0274B984205D081
:10405000264B984202D0264B984203D122F07002A0
:104060004B681A431E4B984217D0B0F1804F14D0C2
:104070001C4B984211D01C4B98420ED01B4B9842BF
:104080000BD01B4B984208D01A4B984205D01A4BC4
:10409000984202D0194B984203D122F44072CB6867
:1040A0001A4322F080034C6943EA040202608B68E1
:1040B000C3620B6883620A4B98420BD00C4B984248
:1040C00008D00C4B984205D00B4B984202D00B4BBA
:1040D000984201D10B6903630123436110BD0000C5
:1040E000002C01400004004000080040000C00408B
:1040F00000340140004001400044014000480140BC
:1041000030B501F01F05012404FA05F3046A9C434D
:104110000462046A01F01F0502FA05F52C430462EB
:1041200030BD70B50546AC6A606AA84207D101206F
:104130002077E86918BB012084F83E001FE0A06AE0
:10414000A84207D102202077E869C0B901213F20A9
:10415000015514E0E06AA84207D104202077E869FD
:1041600068B901214020015509E0206BA84206D121
:1041700008202077E86910B9012141200155204627
:10418000FEF770FE0020207770BD70B50546AC6A62
:10419000606AA84202D10120207710E0A06AA842FC
:1041A00002D1022020770AE0E06AA84202D104206E
:1041B000207704E0206BA84201D108202077204618
:1041C000FEF751FE0020207770BD70B50546AC6A41
:1041D000606AA84204D10120207784F83E001DE0E7
:1041E000A06AA84205D10220207701213F20015575
:1041F00014E0E06AA84205D1042020770121402084
:1042000001550BE0206BA84205D108202077012141
:104210004120015502E0012084F83D002046FEF7D0
:10422000C5FC0020207770BD30B5056A25F001057A
:104230000562026A43688469204D2C4024F003041F
:104240000D682C4322F002028D682A431C4DA842BF
:1042500000D10FE01B4DA84200D10BE01A4DA8423F
:1042600000D107E0194DA84200D103E0184DA84243
:1042700006D100BF22F00802CD682A4322F00402D2
:104280000F4DA8420BD00F4DA84208D00E4DA842AA
:1042900005D00E4DA84202D00D4DA84207D123F4FF
:1042A000807323F400734D692B438D692B43436066
:1042B00084614D684563026230BD00008FFFFEFFE0
:1042C000002C014000340140004001400044014006
:1042D0000048014030B5056A25F010050562026A04
:1042E00043688469224D2C4024F440740D6844EAEC
:1042F000052422F020028D6842EA05121D4DA842D5
:1043000000D10FE01C4DA84200D10BE01B4DA8428C
:1043100000D100BF1A4DA84200D100BF194DA842DC
:1043200007D106E022F08002CD6842EA051222F0B1
:104330004002104DA8420BD00F4DA84208D00F4D9F
:10434000A84205D00E4DA84202D00E4DA84209D178
:1043500023F4806323F400634D6943EA85038D6988
:1043600043EA8503436084614D688563026230BD22
:10437000FF8FFFFE002C014000340140004001404F
:10438000004401400048014030B5056A25F48075BD
:104390000562026A4368C469224D2C4024F003047C
:1043A0000D682C4322F400728D6842EA05221E4DEE
:1043B000A84200D10FE01D4DA84200D10BE01C4DDA
:1043C000A84200D100BF1B4DA84200D100BF1A4D2A
:1043D000A84207D106E022F40062CD6842EA052235
:1043E00022F48062104DA8420BD0104DA84208D094
:1043F0000F4DA84205D00F4DA84202D00E4DA84245
:1044000009D123F4805323F400534D6943EA051383
:104410008D6943EA05134360C4614D68C563026258
:1044200030BD00008FFFFEFF002C01400034014032
:1044300000400140004401400048014030B5056A99
:1044400025F480550562036A4468C269124D2A400A
:1044500022F440720D6842EA052223F400538D686D
:1044600043EA05330D4DA8420BD00D4DA84208D0AC
:104470000C4DA84205D00C4DA84202D00B4DA842CD
:1044800004D124F480444D6944EA85144460C26137
:104490004D680564036230BDFF8FFFFE002C0140B4
:1044A0000034014000400140004401400048014008
:1044B00030B5056A25F480350562026A4368446DAB
:1044C000114D2C400D682C4322F400320D8942EA34
:1044D00005420E4DA8420BD00D4DA84208D00D4DFF
:1044E000A84205D00C4DA84202D00C4DA84204D1E0
:1044F00023F480334D6943EA0523436044654D68E6
:104500008565026230BD00008FFFFEFF002C014078
:104510000034014000400140004401400048014097
:1045200030B5056A25F480150562026A4368446D5A
:10453000114D2C400D6844EA052422F400120D8927
:1045400042EA05520D4DA8420BD00D4DA84208D0AD
:104550000C4DA84205D00C4DA84202D00B4DA842EC
:1045600004D123F480234D6943EA852343604465E5
:104570004D68C565026230BDFF8FFFFE002C014013
:104580000034014000400140004401400048014027
:1045900090F8241001F0010139B10168496821F453
:1045A0000031826A11430268516090F8241001F0D2
:1045B0000201022907D10168496821F48031C26AE9
:1045C00011430268516090F8241001F0040104299D
:1045D00007D10168496821F48021026B1143026808
:1045E000516090F8241001F00801082907D10168F2
:1045F000496821F40041426B11430268516090F810
:10460000241001F01001102907D10168896821F4F4
:104610008051826B11430268916090F8241001F080
:104620002001202907D10168896821F40051C26B5B
:1046300011430268916090F8241001F04001402974
:1046400013D10168496821F48011026C114302689A
:104650005160016CB1F5801F07D10168496821F4F0
:10466000C001426C11430268516090F8241001F0BF
:104670008001802907D10168496821F40021826CFA
:10468000114302685160704738B504460020E06766
:10469000FCF76EFD05462068006800F00800082859
:1046A0000CD16FF07E402B4600224FF40011009099
:1046B000204600F0E0F908B1032038BD206800680A
:1046C00000F0040004280CD16FF07E402B4600223D
:1046D0004FF480010090204600F0CDF908B103208E
:1046E000EBE720206067A06700BF002084F870001F
:1046F00000BF00BFE1E700002DE9F84F04460020AD
:104700000090D2492068884200D100E000BF2169B2
:10471000A068084361690843E16940EA010A20682A
:104720000068CB49084040EA0A0021680860206818
:10473000406820F44050E168084321684860D4F89C
:1047400018A0C2492068884202D0206A40EA0A0ABA
:104750002068806820F4306040EA0A0021688860A0
:1047600000BFBC492068884216D1BB48006800F0F1
:10477000030030B1012808D0022804D0032808D152
:1047800005E0012507E0022505E0042503E00825F2
:1047900001E0102500BF8DE0B0492068884216D1A5
:1047A000AD48006800F00C0030B1042808D008289B
:1047B00004D00C2808D105E0002507E0022505E01B
:1047C000042503E0082501E0102500BF72E0A4499C
:1047D0002068884216D1A048006800F0300030B14F
:1047E000102808D0202804D0302808D105E0002562
:1047F00007E0022505E0042503E0082501E0102577
:1048000000BF57E097492068884216D19248006857
:1048100000F0C00030B1402808D0802804D0C02863
:1048200008D105E0002507E0022505E0042503E0A6
:10483000082501E0102500BF3CE08B492068884234
:1048400019D18548006800F4407048B1B0F5807F08
:104850000AD0B0F5007F05D0B0F5407F08D105E063
:10486000002507E0022505E0042503E0082501E016
:10487000102500BF1EE075492068884219D176488E
:10488000006800F4406048B1B0F5806F0AD0B0F520
:10489000006F05D0B0F5406F08D105E0002507E0B6
:1048A000022505E0042503E0082501E0102500BFEE
:1048B00000E0102500BF6549206888424AD135B123
:1048C000022D08D0042D08D0082D0DD109E0FDF7E8
:1048D000A3F806460CE0654E0AE0FDF7C1F806466F
:1048E00006E04FF4004603E000260120009000BFE0
:1048F00000BF002E0AD0606800EB4000B04203D831
:1049000060680003B04202D20120009098E00222C9
:104910000023D4F804C060461946FBF753FC4FF45B
:104920008072A6FB022387185941D4F804C062465E
:1049300000233846FBF746FC8146B9F5407F06D395
:10494000B9F5801F03D22068C0F80C9078E00120F0
:10495000009075E0E069B0F5004F3CD1092D17D209
:10496000DFE805F005090D160F1616161300FDF702
:1049700053F8064610E0FDF761F806460CE03B4EA2
:104980000AE0FDF76DF8064606E04FF4004603E046
:1049900000260120009000BF00BF7EB37000616858
:1049A00000EB5100B0FBF1F01FFA80F9B9F1100FE4
:1049B0000ED3B9F5803F0BD24FF6F07009EA000B29
:1049C000C9F342004BEA000B2068C0F80CB037E096
:1049D0000120009034E0092D18D2DFE805F0050928
:1049E0000D17101717171400FDF716F8064611E0FB
:1049F000FDF724F806460DE01C4E0BE020E0FDF725
:104A00002FF8064606E04FF4004603E0002601209A
:104A1000009000BF00BF9EB1606806EB5000616867
:104A2000B0FBF1F01FFA80F9B9F1100F06D3B9F518
:104A3000803F03D22068C0F80C9001E00120009074
:104A4000002020666066009800F012B800800040E8
:104A5000F369FFEF00380140881002400044004035
:104A600000480040004C0040005000400024F4008A
:104A700018BCBDE8E08F2DE9F04104460D4617460D
:104A80009846069E45E0701C002842D0FCF770FB5B
:104A9000A0EB0800B04200D8B6B92068006820F446
:104AA000D070216808602068806820F001002168CB
:104AB000886020206067A06700BF002084F8700035
:104AC00000BF0320BDE8F0812068006800F004000A
:104AD000F8B12068C069C0F3C020D0B14FF40060C5
:104AE000216808622068006820F4D070216808609E
:104AF0002068806820F001002168886020206067BD
:104B0000A067E06700BF002084F8700000BF0320AA
:104B1000D8E72068C0692840A84201D1012000E000
:104B20000020B842AFD00020CCE700BFFEE7000075
:104B30002DE9F04104460D461646012733462A4624
:104B400021460648FBF768FE20B90448FBF7B8FE8B
:104B500000B900273846BDE8F08100005C01002064
:104B600001460120044A92F8D22022B1024AD2F82A
:104B7000D5200A60002070475C0100201CB501248C
:104B800008480949094B0A4ACDE9001009490A4871
:104B9000FBF72FFF20B90848FBF7ACFE00B9002453
:104BA00020461CBD393C0008053D0008B13900080D
:104BB000A1390008BD3900085C0100202DE9F0474B
:104BC00094B005460E4692461C46DDE91C784FF02F
:104BD0000109E8B28DF80100ADF80270ADF804806B
:104BE0000EB1012000E000208DF8000020788DF843
:104BF000060061788DF80710A1788DF80810E1782B
:104C00008DF8091069460548FBF70AFF08B94FF00F
:104C10000009484614B0BDE8F08700005C010020A0
:104C20002DE9FC4104460D4616461F464FF001088B
:104C300042F2107033462A462146CDE900700448FE
:104C4000FBF776FE08B94FF000084046BDE8FC814E
:104C50005C0100200FB4084B10B504A902AA039808
:104C600000F038F8044602A9002000F061FA20465E
:104C700010BC5DF814FB00003151000802480068C8
:104C8000C0F30220704700000CED00E010B50028D2
:104C900004DB0A07130E054A135406E00A07140E34
:104CA000034A00F00F031B1FD45410BD00E400E0C2
:104CB00018ED00E002E008C8121F08C1002AFAD16E
:104CC00070477047002001E001C1121F002AFBD18C
:104CD000704700002DE9FF4F8DB00F4605460026B6
:104CE00006E025280BD0DDE90F1290476D1C761CDD
:104CF00028780028F5D111B0304600F0EDB9002435
:104D0000A246A1460122E94900E0044315F8013F0B
:104D1000203B02FA03F00842F7D128782A2810D065
:104D20006FF02F022878A0F13001092914D80AEB7E
:104D30008A0102EB410144F0020400EB010A6D1C00
:104D4000F0E701CF5FEA000A03D544F40054CAF14A
:104D5000000A44F002046D1C28782E2817D115F89B
:104D6000010F44F004042A280ED06FF02F02287897
:104D7000A0F1300109290AD809EB890102EB4101B0
:104D800000EB01096D1CF2E757F8049B6D1C2878B5
:104D90006C280FD006DC4C2817D068280DD06A2864
:104DA00014D104E0742810D07A280FD10DE044F417
:104DB00000140AE044F4801401E044F440146978DB
:104DC000814202D104F580146D1C6D1C28786E2878
:104DD0001ED00CDC632830D004DC00288BD058288F
:104DE00011D19FE0642867D069280CD164E0732852
:104DF0002DD004DC6F2872D0702804D194E075287F
:104E00006ED078286DD0DDE90F129047761C4BE10B
:104E1000C4F30250022806D0032809D0042801CF89
:104E200009D0066040E101CFF117C0E900613BE124
:104E300001CF068038E1067036E117F8040B8DF8D3
:104E4000000000208DF80100EB46012003E057F838
:104E500004BB4FF0FF3061074FF0000102D40DE0BA
:104E600008F10101884649450FDA8045F8DB1BF857
:104E700008100029F4D108E008F1010188468142B8
:104E8000FADB1BF808100029F6D1DDE90F23AAEBA5
:104E900008008146214600F034F9304400EB080652
:104EA00004E0DDE90F121BF8010B9047B8F101088F
:104EB000F7D221464846F2E00A21C4F302524FF0ED
:104EC000000B0891022A04D001CFC117032A09D090
:104ED0000AE0FF1D27F00707F7E8020108E02CE0D1
:104EE0001EE01FE000B2C117042A01D140B2C11771
:104EF000021E71F1000206DA0023D0EB030063EB1F
:104F000001012D2202E0220504D52B228DF8242058
:104F1000012203E0E20701D02022F7E7904653E0A8
:104F20000A210BE0102109E010214FF0000B44F0A2
:104F300004044FF00809089103E008214FF0000B2A
:104F40000891C4F30252022A04D001CF0021032A9F
:104F500006D006E0FF1D27F00707F7E8020103E08F
:104F600080B2042A00D1C0B24FF0000822072BD52E
:104F70002A78702A07D0DDF820C08CF0100C5CEA8B
:104F80000B0C05D00EE040228DF82420012208E011
:104F900050EA010306D030238DF824308DF8252007
:104FA00002229046089B83F0080353EA0B030BD1BF
:104FB00050EA010201D1620706D530228DF8242083
:104FC0004FF00108A9F101092A78582A04D038A223
:104FD0000B9208AA0A920BE03AA2F9E75B46089AFC
:104FE000FBF7F0F80B9B9B5C0A9A521E0A92137017
:104FF00050EA0102F2D10A98ADEB000000F1200B5B
:10500000600702D524F4803401E04FF00109D9454E
:1050100002DDA9EB0B0000E0002000EB0B01414496
:105020000890AAEB010AE00306D4DDE90F2321462C
:10503000504600F066F806444FF0000908E009A960
:1050400011F80900DDE90F12904709F10109761CFA
:10505000C145F4DBE0030CD5DDE90F2321465046C2
:1050600000F04FF8064404E0DDE90F1230209047CD
:10507000761C0899481E08900029F5DC08E00A987B
:105080000A990078491C0A91DDE90F129047761CB5
:10509000BBF10001ABF1010BF1DC21465046DDE92B
:1050A0000F2300F01CF806446D1C21E609280100BE
:1050B000303132333435363738396162636465668E
:1050C0000000000030313233343536373839414250
:1050D000434445460000000030BCBDE8C08F2DE9C8
:1050E000F041044600251E461746880404D405E016
:1050F00039462020B0476D1C641EF9D52846BDE80E
:10510000F0812DE9F041044600251E469046C80373
:1051100001D5302700E02027880404D505E041466A
:105120003846B0476D1C641EF9D52846BDE8F081AD
:105130000A68531C0B6010707047024641EA022057
:105140007047F0B5044661782078FFF7F6FF054612
:10515000E178A078FFF7F1FF064646EA05473846B2
:10516000F0BD00002DED048BADF5926D4FF0000900
:10517000FCF710F8FEF7ECFEFEF7C2F8FEF7A6F813
:10518000FEF7F8F8FEF720F9FEF76EF900229B21F2
:10519000104600F099F9FFF7F1FC30B90123102215
:1051A00062496348FEF724F805E0012310226149B3
:1051B0005F48FEF71DF803225FA162A0FFF7B8FC6D
:1051C00030B901230E2263495948FEF711F805E072
:1051D00001230E2260495648FEF70AF85F48FFF7A0
:1051E000BFFCC8B9012313225D495148FEF700F8FE
:1051F0005A48C07859498978CDE900105748437812
:10520000027858A15A48FFF725FD01231C2258496E
:105210004748FDF7EDFF05E00123132255494448B7
:10522000FDF7E6FF00204FF4AE51534B53A2CDE9FA
:1052300000100121FFF7C2FC002875D14FF4804116
:105240005148FBF785FF0123142250493848FDF7E8
:10525000CFFF67E03220FBF7BBFD09F0FF000DF246
:105260008C4340F2652289A9FFF7DAFC002853D16C
:10527000BDF88C04002855DD03A800F08FF8002845
:1052800050D1BDF8200001284CD1002441E004EBAE
:1052900044050DF12301485DFBF797F841EC190B2C
:1052A0009FED3B0B53EC102BFBF71AF841EC180B5E
:1052B000FBF798F8C6B20DF12301AA1C885CFBF736
:1052C00084F841EC190B9FED320B53EC102BFBF7DC
:1052D00007F841EC180BFBF785F8C7B20DF1230175
:1052E0006A1C885CFBF771F841EC190B9FED280BE9
:1052F00053EC102BFAF7F4FF41EC180BFBF772F8A4
:1053000000F0FF0833463A464146204600F08CF84C
:10531000641C642C06DABAE7012314221E490448EF
:10532000FDF766FF96E7FFE700BFFEE70A000020F3
:10533000FC080020770000206C697368616E67715B
:1053400069750000476F6F6443686F636F6C6174C9
:10535000650000002E0000209B00002006000020B9
:105360003C00002025642E25642E25642E25640033
:105370005D150020A9000020E85400085544505F46
:10538000434C49454E540000000400484F000020A3
:10539000000000000000E83FBC00002038B50546D2
:1053A000002405E005F50670211D405C2855641CAD
:1053B0000C2CF7DB002407E005F5067004F1120160
:1053C000405C0DF80400641C042CF5DB6846FFF714
:1053D000B8FEE860002407E005F5067004F1280136
:1053E000405C0DF80400641C042CF5DB6846FFF7F4
:1053F000A8FE286195F88A1295F88902FFF79DFEAC
:10540000A88295F88D02A875002408E005F50670BD
:1054100004F17D01415C05F117000155641CB4F5F0
:10542000007FF3DD002038BDF0B586B00446642669
:10543000B4FBF6F706FB174500200AE002FA00F677
:1054400006F080060EB10D2600E006260DF800607D
:10545000401C0828F2D300200CE001FA00F606F008
:1054600080060EB10D2700E0062700F108060DF8B2
:105470000670401C0828F0D300200CE003FA00F668
:1054800006F080060EB10D2700E0062700F1100699
:105490000DF80670401C0828F0D300200DE01DF820
:1054A000006005EB45074FF0460C0CEBC7070744BF
:1054B000DFF810C00CF80760401C1828EFD306B0C6
:1054C000F0BD00007C090020F0B505460E461746E9
:1054D000002406E03B46324629462046FFF7A4FF5B
:1054E000641C642CF6D3F0BDC0A8001100000000BD
:1054F0000000000001020304060708090000000084
:1055000001020304A0860100400D0300801A06007A
:1055100000350C0040420F0080841E0000093D0051
:1055200000127A000024F40000366E010048E80101
:10553000006CDC025455000800000020F800000058
:10554000B44C00084C560008F800002088180000F1
:10555000C44C00080000000000000000000053756B
:1055600063636573732128496E6974290A00537552
:10557000636365737321284D41432041646472293C
:105580000A005375636365737321284150290A002B
:1055900053756363657373212849502041646472B5
:1055A000290A00537563636573732128554450209D
:1055B000496E6974290A0053756363657373212802
:1055C0005544502053656E74290A00537563636512
:1055D00073732128496E6974290A005375636365E2
:1055E000737321284D41432041646472290A00539A
:1055F00075636365737321284150290A00537563ED
:1056000063657373212849502041646472290A003C
:1056100053756363657373212855445020496E693F
:1056200074290A00537563636573732128554450C8
:105630002053656E74290A0000000000100000006D
:0C5640000100000000093D000000000017
:040000050800018965
:00000001FF
